{
  "_format": "hh-sol-artifact-1",
  "contractName": "CryptoDevsDAO",
  "sourceName": "contracts/CryptoDevsDAO.sol",
  "abi": [
    {
      "inputs": [
        {
          "internalType": "address",
          "name": "_nftMarketplace",
          "type": "address"
        },
        {
          "internalType": "address",
          "name": "_cryptoDevsNFT",
          "type": "address"
        }
      ],
      "stateMutability": "payable",
      "type": "constructor"
    },
    {
      "anonymous": false,
      "inputs": [
        {
          "indexed": true,
          "internalType": "address",
          "name": "previousOwner",
          "type": "address"
        },
        {
          "indexed": true,
          "internalType": "address",
          "name": "newOwner",
          "type": "address"
        }
      ],
      "name": "OwnershipTransferred",
      "type": "event"
    },
    {
      "stateMutability": "payable",
      "type": "fallback"
    },
    {
      "inputs": [
        {
          "internalType": "uint256",
          "name": "_nftTokenId",
          "type": "uint256"
        }
      ],
      "name": "createProposal",
      "outputs": [
        {
          "internalType": "uint256",
          "name": "",
          "type": "uint256"
        }
      ],
      "stateMutability": "nonpayable",
      "type": "function"
    },
    {
      "inputs": [
        {
          "internalType": "uint256",
          "name": "proposalIndex",
          "type": "uint256"
        }
      ],
      "name": "executeProposal",
      "outputs": [],
      "stateMutability": "nonpayable",
      "type": "function"
    },
    {
      "inputs": [],
      "name": "numProposals",
      "outputs": [
        {
          "internalType": "uint256",
          "name": "",
          "type": "uint256"
        }
      ],
      "stateMutability": "view",
      "type": "function"
    },
    {
      "inputs": [],
      "name": "owner",
      "outputs": [
        {
          "internalType": "address",
          "name": "",
          "type": "address"
        }
      ],
      "stateMutability": "view",
      "type": "function"
    },
    {
      "inputs": [
        {
          "internalType": "uint256",
          "name": "",
          "type": "uint256"
        }
      ],
      "name": "proposals",
      "outputs": [
        {
          "internalType": "uint256",
          "name": "nftTokenId",
          "type": "uint256"
        },
        {
          "internalType": "uint256",
          "name": "deadline",
          "type": "uint256"
        },
        {
          "internalType": "uint256",
          "name": "yayVotes",
          "type": "uint256"
        },
        {
          "internalType": "uint256",
          "name": "nayVotes",
          "type": "uint256"
        },
        {
          "internalType": "bool",
          "name": "executed",
          "type": "bool"
        }
      ],
      "stateMutability": "view",
      "type": "function"
    },
    {
      "inputs": [],
      "name": "renounceOwnership",
      "outputs": [],
      "stateMutability": "nonpayable",
      "type": "function"
    },
    {
      "inputs": [
        {
          "internalType": "address",
          "name": "newOwner",
          "type": "address"
        }
      ],
      "name": "transferOwnership",
      "outputs": [],
      "stateMutability": "nonpayable",
      "type": "function"
    },
    {
      "inputs": [
        {
          "internalType": "uint256",
          "name": "proposalIndex",
          "type": "uint256"
        },
        {
          "internalType": "enum CryptoDevsDAO.Vote",
          "name": "vote",
          "type": "uint8"
        }
      ],
      "name": "voteOnProposal",
      "outputs": [],
      "stateMutability": "nonpayable",
      "type": "function"
    },
    {
      "inputs": [],
      "name": "withdrawEther",
      "outputs": [],
      "stateMutability": "nonpayable",
      "type": "function"
    },
    {
      "stateMutability": "payable",
      "type": "receive"
    }
  ],
  "bytecode": "0x608060405260405162001a8638038062001a868339818101604052810190620000299190620001b6565b620000496200003d620000d360201b60201c565b620000db60201b60201c565b81600160006101000a81548173ffffffffffffffffffffffffffffffffffffffff021916908373ffffffffffffffffffffffffffffffffffffffff16021790555080600260006101000a81548173ffffffffffffffffffffffffffffffffffffffff021916908373ffffffffffffffffffffffffffffffffffffffff160217905550505062000245565b600033905090565b60008060009054906101000a900473ffffffffffffffffffffffffffffffffffffffff169050816000806101000a81548173ffffffffffffffffffffffffffffffffffffffff021916908373ffffffffffffffffffffffffffffffffffffffff1602179055508173ffffffffffffffffffffffffffffffffffffffff168173ffffffffffffffffffffffffffffffffffffffff167f8be0079c531659141344cd1fd0a4f28419497f9722a3daafe3b4186f6b6457e060405160405180910390a35050565b600081519050620001b0816200022b565b92915050565b60008060408385031215620001ca57600080fd5b6000620001da858286016200019f565b9250506020620001ed858286016200019f565b9150509250929050565b600062000204826200020b565b9050919050565b600073ffffffffffffffffffffffffffffffffffffffff82169050919050565b6200023681620001f7565b81146200024257600080fd5b50565b61183180620002556000396000f3fe60806040526004361061008a5760003560e01c8063715018a611610059578063715018a6146101655780637362377b1461017c5780638da5cb5b14610193578063efafb22e146101be578063f2fde38b146101e757610091565b8063013cf08b146100935780630d61b519146100d4578063400e3949146100fd5780635a43dc001461012857610091565b3661009157005b005b34801561009f57600080fd5b506100ba60048036038101906100b591906110ec565b610210565b6040516100cb959493929190611461565b60405180910390f35b3480156100e057600080fd5b506100fb60048036038101906100f691906110ec565b610253565b005b34801561010957600080fd5b506101126105c8565b60405161011f9190611446565b60405180910390f35b34801561013457600080fd5b5061014f600480360381019061014a91906110ec565b6105ce565b60405161015c9190611446565b60405180910390f35b34801561017157600080fd5b5061017a61080d565b005b34801561018857600080fd5b50610191610821565b005b34801561019f57600080fd5b506101a8610879565b6040516101b591906112e2565b60405180910390f35b3480156101ca57600080fd5b506101e560048036038101906101e0919061113e565b6108a2565b005b3480156101f357600080fd5b5061020e6004803603810190610209919061109a565b610da1565b005b60036020528060005260406000206000915090508060000154908060010154908060020154908060030154908060040160009054906101000a900460ff16905085565b6000600260009054906101000a900473ffffffffffffffffffffffffffffffffffffffff1673ffffffffffffffffffffffffffffffffffffffff166370a08231336040518263ffffffff1660e01b81526004016102b091906112e2565b60206040518083038186803b1580156102c857600080fd5b505afa1580156102dc573d6000803e3d6000fd5b505050506040513d601f19601f820116820180604052508101906103009190611115565b11610340576040517f08c379a0000000000000000000000000000000000000000000000000000000008152600401610337906113e6565b60405180910390fd5b80426003600083815260200190815260200160002060010154111561039a576040517f08c379a000000000000000000000000000000000000000000000000000000000815260040161039190611326565b60405180910390fd5b600015156003600083815260200190815260200160002060040160009054906101000a900460ff16151514610404576040517f08c379a00000000000000000000000000000000000000000000000000000000081526004016103fb90611366565b60405180910390fd5b60006003600084815260200190815260200160002090508060030154816002015411156105a6576000600160009054906101000a900473ffffffffffffffffffffffffffffffffffffffff1673ffffffffffffffffffffffffffffffffffffffff166398d5fdca6040518163ffffffff1660e01b815260040160206040518083038186803b15801561049557600080fd5b505afa1580156104a9573d6000803e3d6000fd5b505050506040513d601f19601f820116820180604052508101906104cd9190611115565b905080471015610512576040517f08c379a000000000000000000000000000000000000000000000000000000000815260040161050990611426565b60405180910390fd5b600160009054906101000a900473ffffffffffffffffffffffffffffffffffffffff1673ffffffffffffffffffffffffffffffffffffffff1663efef39a18284600001546040518363ffffffff1660e01b81526004016105729190611446565b6000604051808303818588803b15801561058b57600080fd5b505af115801561059f573d6000803e3d6000fd5b5050505050505b60018160040160006101000a81548160ff021916908315150217905550505050565b60045481565b600080600260009054906101000a900473ffffffffffffffffffffffffffffffffffffffff1673ffffffffffffffffffffffffffffffffffffffff166370a08231336040518263ffffffff1660e01b815260040161062c91906112e2565b60206040518083038186803b15801561064457600080fd5b505afa158015610658573d6000803e3d6000fd5b505050506040513d601f19601f8201168201806040525081019061067c9190611115565b116106bc576040517f08c379a00000000000000000000000000000000000000000000000000000000081526004016106b3906113e6565b60405180910390fd5b600160009054906101000a900473ffffffffffffffffffffffffffffffffffffffff1673ffffffffffffffffffffffffffffffffffffffff166396e494e8836040518263ffffffff1660e01b81526004016107179190611446565b60206040518083038186803b15801561072f57600080fd5b505afa158015610743573d6000803e3d6000fd5b505050506040513d601f19601f8201168201806040525081019061076791906110c3565b6107a6576040517f08c379a000000000000000000000000000000000000000000000000000000000815260040161079d906113a6565b60405180910390fd5b6000600360006004548152602001908152602001600020905082816000018190555061012c426107d691906114c5565b8160010181905550600460008154809291906107f190611597565b91905055506001600454610805919061151b565b915050919050565b610815610e25565b61081f6000610ea3565b565b610829610e25565b610831610879565b73ffffffffffffffffffffffffffffffffffffffff166108fc479081150290604051600060405180830381858888f19350505050158015610876573d6000803e3d6000fd5b50565b60008060009054906101000a900473ffffffffffffffffffffffffffffffffffffffff16905090565b6000600260009054906101000a900473ffffffffffffffffffffffffffffffffffffffff1673ffffffffffffffffffffffffffffffffffffffff166370a08231336040518263ffffffff1660e01b81526004016108ff91906112e2565b60206040518083038186803b15801561091757600080fd5b505afa15801561092b573d6000803e3d6000fd5b505050506040513d601f19601f8201168201806040525081019061094f9190611115565b1161098f576040517f08c379a0000000000000000000000000000000000000000000000000000000008152600401610986906113e6565b60405180910390fd5b81426003600083815260200190815260200160002060010154116109e8576040517f08c379a00000000000000000000000000000000000000000000000000000000081526004016109df90611386565b60405180910390fd5b60006003600085815260200190815260200160002090506000600260009054906101000a900473ffffffffffffffffffffffffffffffffffffffff1673ffffffffffffffffffffffffffffffffffffffff166370a08231336040518263ffffffff1660e01b8152600401610a5c91906112e2565b60206040518083038186803b158015610a7457600080fd5b505afa158015610a88573d6000803e3d6000fd5b505050506040513d601f19601f82011682018060405250810190610aac9190611115565b90506000805b82811015610ca057610b6f600260009054906101000a900473ffffffffffffffffffffffffffffffffffffffff1673ffffffffffffffffffffffffffffffffffffffff16632f745c5933846040518363ffffffff1660e01b8152600401610b1a9291906112fd565b60206040518083038186803b158015610b3257600080fd5b505afa158015610b46573d6000803e3d6000fd5b505050506040513d601f19601f82011682018060405250810190610b6a9190611115565b610f67565b6000600260009054906101000a900473ffffffffffffffffffffffffffffffffffffffff1673ffffffffffffffffffffffffffffffffffffffff16632f745c5933846040518363ffffffff1660e01b8152600401610bce9291906112fd565b60206040518083038186803b158015610be657600080fd5b505afa158015610bfa573d6000803e3d6000fd5b505050506040513d601f19601f82011682018060405250810190610c1e9190611115565b90506000151585600501600083815260200190815260200160002060009054906101000a900460ff1615151415610c8c578280610c5a90611597565b935050600185600501600083815260200190815260200160002060006101000a81548160ff0219169083151502179055505b508080610c9890611597565b915050610ab2565b5060008111610ce4576040517f08c379a0000000000000000000000000000000000000000000000000000000008152600401610cdb906113c6565b60405180910390fd5b60006001811115610d1e577f4e487b7100000000000000000000000000000000000000000000000000000000600052602160045260246000fd5b856001811115610d57577f4e487b7100000000000000000000000000000000000000000000000000000000600052602160045260246000fd5b1415610d7d5780836002016000828254610d7191906114c5565b92505081905550610d99565b80836003016000828254610d9191906114c5565b925050819055505b505050505050565b610da9610e25565b600073ffffffffffffffffffffffffffffffffffffffff168173ffffffffffffffffffffffffffffffffffffffff161415610e19576040517f08c379a0000000000000000000000000000000000000000000000000000000008152600401610e1090611346565b60405180910390fd5b610e2281610ea3565b50565b610e2d611000565b73ffffffffffffffffffffffffffffffffffffffff16610e4b610879565b73ffffffffffffffffffffffffffffffffffffffff1614610ea1576040517f08c379a0000000000000000000000000000000000000000000000000000000008152600401610e9890611406565b60405180910390fd5b565b60008060009054906101000a900473ffffffffffffffffffffffffffffffffffffffff169050816000806101000a81548173ffffffffffffffffffffffffffffffffffffffff021916908373ffffffffffffffffffffffffffffffffffffffff1602179055508173ffffffffffffffffffffffffffffffffffffffff168173ffffffffffffffffffffffffffffffffffffffff167f8be0079c531659141344cd1fd0a4f28419497f9722a3daafe3b4186f6b6457e060405160405180910390a35050565b610ffd81604051602401610f7b9190611446565b6040516020818303038152906040527ff82c50f1000000000000000000000000000000000000000000000000000000007bffffffffffffffffffffffffffffffffffffffffffffffffffffffff19166020820180517bffffffffffffffffffffffffffffffffffffffffffffffffffffffff8381831617835250505050611008565b50565b600033905090565b60008151905060006a636f6e736f6c652e6c6f679050602083016000808483855afa5050505050565b600081359050611040816117a6565b92915050565b600081519050611055816117bd565b92915050565b60008135905061106a816117d4565b92915050565b60008135905061107f816117e4565b92915050565b600081519050611094816117e4565b92915050565b6000602082840312156110ac57600080fd5b60006110ba84828501611031565b91505092915050565b6000602082840312156110d557600080fd5b60006110e384828501611046565b91505092915050565b6000602082840312156110fe57600080fd5b600061110c84828501611070565b91505092915050565b60006020828403121561112757600080fd5b600061113584828501611085565b91505092915050565b6000806040838503121561115157600080fd5b600061115f85828601611070565b92505060206111708582860161105b565b9150509250929050565b6111838161154f565b82525050565b61119281611561565b82525050565b60006111a56015836114b4565b91506111b08261160f565b602082019050919050565b60006111c86026836114b4565b91506111d382611638565b604082019050919050565b60006111eb6019836114b4565b91506111f682611687565b602082019050919050565b600061120e6011836114b4565b9150611219826116b0565b602082019050919050565b60006112316010836114b4565b915061123c826116d9565b602082019050919050565b6000611254600d836114b4565b915061125f82611702565b602082019050919050565b60006112776010836114b4565b91506112828261172b565b602082019050919050565b600061129a6020836114b4565b91506112a582611754565b602082019050919050565b60006112bd6010836114b4565b91506112c88261177d565b602082019050919050565b6112dc8161158d565b82525050565b60006020820190506112f7600083018461117a565b92915050565b6000604082019050611312600083018561117a565b61131f60208301846112d3565b9392505050565b6000602082019050818103600083015261133f81611198565b9050919050565b6000602082019050818103600083015261135f816111bb565b9050919050565b6000602082019050818103600083015261137f816111de565b9050919050565b6000602082019050818103600083015261139f81611201565b9050919050565b600060208201905081810360008301526113bf81611224565b9050919050565b600060208201905081810360008301526113df81611247565b9050919050565b600060208201905081810360008301526113ff8161126a565b9050919050565b6000602082019050818103600083015261141f8161128d565b9050919050565b6000602082019050818103600083015261143f816112b0565b9050919050565b600060208201905061145b60008301846112d3565b92915050565b600060a08201905061147660008301886112d3565b61148360208301876112d3565b61149060408301866112d3565b61149d60608301856112d3565b6114aa6080830184611189565b9695505050505050565b600082825260208201905092915050565b60006114d08261158d565b91506114db8361158d565b9250827fffffffffffffffffffffffffffffffffffffffffffffffffffffffffffffffff038211156115105761150f6115e0565b5b828201905092915050565b60006115268261158d565b91506115318361158d565b925082821015611544576115436115e0565b5b828203905092915050565b600061155a8261156d565b9050919050565b60008115159050919050565b600073ffffffffffffffffffffffffffffffffffffffff82169050919050565b6000819050919050565b60006115a28261158d565b91507fffffffffffffffffffffffffffffffffffffffffffffffffffffffffffffffff8214156115d5576115d46115e0565b5b600182019050919050565b7f4e487b7100000000000000000000000000000000000000000000000000000000600052601160045260246000fd5b7f444541444c494e455f4e4f545f45584345454445440000000000000000000000600082015250565b7f4f776e61626c653a206e6577206f776e657220697320746865207a65726f206160008201527f6464726573730000000000000000000000000000000000000000000000000000602082015250565b7f50524f504f53414c5f414c52454144595f455845435554454400000000000000600082015250565b7f444541444c494e455f4558434545444544000000000000000000000000000000600082015250565b7f4e46545f4e4f545f464f525f53414c4500000000000000000000000000000000600082015250565b7f414c52454144595f564f54454400000000000000000000000000000000000000600082015250565b7f4e4f545f415f44414f5f4d454d42455200000000000000000000000000000000600082015250565b7f4f776e61626c653a2063616c6c6572206973206e6f7420746865206f776e6572600082015250565b7f4e4f545f454e4f5547485f46554e445300000000000000000000000000000000600082015250565b6117af8161154f565b81146117ba57600080fd5b50565b6117c681611561565b81146117d157600080fd5b50565b600281106117e157600080fd5b50565b6117ed8161158d565b81146117f857600080fd5b5056fea264697066735822122012aff4b30bccd877732b9e05d67be69a2c67fa11434a971838d3ff63ab156c0764736f6c63430008040033",
  "linkReferences": {},
  "deployedLinkReferences": {}
}